:020000040800F2
:1000000000000220B5240008052500080525000889
:10001000052500080525000805250008000000004A
:10002000000000000000000000000000052500089E
:10003000052500080000000005250008052500082A
:1000400005250008052500080525000805250008E8
:1000500005250008052500080525000805250008D8
:1000600005250008052500080525000805250008C8
:1000700005250008052500080525000805250008B8
:1000800005250008052500080525000805250008A8
:100090000525000805250008052500080525000898
:1000A0000525000805250008052500080525000888
:1000B0000525000805250008052500080525000878
:1000C0000525000805250008052500080525000868
:1000D0000525000805250008052500080525000858
:1000E0000525000805250008052500080525000848
:1000F0000525000805250008052500080525000838
:100100000525000805250008052500080525000827
:100110000525000805250008052500080525000817
:100120000525000805250008052500080525000807
:1001300005250008052500080525000805250008F7
:1001400005250008052500080525000805250008E7
:1001500005250008052500080525000805250008D7
:1001600005250008052500080525000805250008C7
:1001700005250008052500080525000805250008B7
:08018000052500080525000813
:1001880008B540F25440074BC2F200001B1A062B78
:1001980000D808BD40F20003C0F20003002BF8D0DD
:1001A8009847F6E75704002008B540F2544040F25B
:1001B8005443C2F20003C2F200001B1A9B1003EB67
:1001C800D373591000D108BD40F20002C0F20002FA
:1001D800002AF8D09047F6E710B540F25444C2F22E
:1001E8000004237873B9FFF7CBFF40F20003C0F295
:1001F80000032BB142F21050C0F60000AFF30080AC
:100208000123237010BD00BF08B540F20003C0F2FF
:1002180000034BB142F2105040F25841C0F60000C2
:10022800C2F20001AFF3008040F25040C2F2000079
:1002380003682BB140F20003C0F2000303B19847F2
:10024800BDE80840FFF7B0BF134B002B08BF114BA8
:100258009D46A3F5803A00218B460F461148124A65
:10026800121A02F05DF80D4B002B00D098470C4B8A
:10027800002B00D098470020002104000D000B48F7
:1002880001F09AFF02F01EF82000290000F010F893
:1002980001F0EEFF00000800000000000000000070
:1002A8000000000054040020740400209922000873
:1002B80008B501F033FB00F06FF89FED020A00F07B
:1002C80003F8FEE7CDCC0C4138B510EE100A01F06A
:1002D8009DFC00220023C4F2590301F015FE0446D8
:1002E8000D4640F27043C2F200031888013001F055
:1002F8007BFC02460B462046294601F0DBFC01F058
:10030800EBFE81B240F27243C2F2000319804FF44F
:100318008060C4F2000000F0DFFF38BD000000007C
:1003280008B51E28A8BF1E206FF01D039842B8BF4D
:100338001846833001F058FC13A3D3E9002301F0D9
:10034800E3FD00220023C4F2590301F0B3FC024686
:100358000B4601F0FDFA0EA3D3E9002301F0D4FD0A
:1003680001F0DAFE01F052FC00220023C4F2590326
:1003780001F0CAFD01F0B0FE81B24FF48060C4F212
:10038800000000F0ABFF08BD00000000406FF34024
:100398007B14AE47E17A943F2DE9F0438BB00220FD
:1003A800012100F03BFA0120014600F001FA002487
:1003B800C4F20204204600F067FBC023059302251F
:1003C8008DF8185003238DF819304FF000098DF877
:1003D8001A904FF001088DF81B80204605A900F0FF
:1003E800DDFB204606212A4600F060FC2046072156
:1003F8002A4600F05BFC40F21803C2F200031A68B8
:1004080049F68173C1F25E63A3FB0213DB0C013B67
:10041800ADF81C3040F27047C2F200074EF65F2379
:100428003B800893ADF82490ADF81E904FF4806699
:10043800C4F20006304607A900F060FD40F204034C
:10044800C2F20003186801F0E1FB00220023C4F2A5
:10045800590301F059FD04460D463888404401F01F
:10046800C3FB02460B462046294601F023FC01F057
:1004780033FE80B278806023ADF80030ADF802809A
:100488000290ADF80C903046694600F0EFFD30461A
:10049800082100F04DFFADF802807B8802933046BA
:1004A800694600F021FE3046082100F049FF304639
:1004B800414600F0A7FD3046414600F0C9FD0BB0AB
:1004C800BDE8F0833C25000800000020500400200F
:1004D80054040020740400204FF46053C4F2020353
:1004E8001A6842F001021A6000229A60196821F025
:1004F800847121F48031196043F21001C2F2004185
:100508005960196821F480211960DA60704700BFCA
:1005180043F60203C4F2020300221A7018707047EF
:100528004FF46053C4F202031A6822F0F80242EA58
:10053800C0001860704700BF0023C4F2472318604A
:10054800704700BF43F67003C4F2020300221A701A
:100558001A70012802D0042807D0704743F67003A8
:10056800C4F2020301221A70704743F67003C4F202
:10057800020305221A7070474FF46863C4F24723D8
:100588001860704710B4019C40EA0460014341EAD6
:1005980082125B08013B42EA03444FF46053C4F201
:1005A80002035C605DF8044B704700BF6023C4F22F
:1005B80047231860704700BF090741EA80104FF4CD
:1005C8006053C4F20203C3F8840070476823C4F27E
:1005D80047231860704700BF4C23C4F247231860B4
:1005E800704700BF4FF46053C4F202039A6822F0C8
:1005F800EC62114308439860704700BF4FF46053A2
:10060800C4F202039A6822F07842114308439860C2
:10061800704700BF4FF46053C4F202039A6822F097
:1006280003021043986070474FF46053C4F202030A
:10063800986800F00C0070474FF46053C4F202034E
:100648009A6822F0F0021043986070474FF46053A4
:10065800C4F202039A6822F4E0521043986070478B
:100668004FF46053C4F202039A6822F4604242EAEB
:10067800C0009860704700BF10B44FF46053C4F2D4
:1006880002039B6803F00C03042B09D0082B0DD040
:10069800002B36D14FF41053C0F2F403036035E059
:1006A8004FF49053C0F27A0303602FE04FF4605385
:1006B800C4F202035C685A6802F03F0214F4800F27
:1006C8004FF46053C4F202035B68C3F3881319BF85
:1006D8004FF49054C0F27A044FF41054C0F2F4046A
:1006E800B4FBF2F101FB03F14FF46053C4F20203CF
:1006F8005A68C2F3014201325200B1FBF2F30360BF
:1007080004E04FF41053C0F2F40303604FF4605256
:10071800C4F202029168C1F3031140F20803C2F265
:100728000003595CC9B2046824FA01F14160946875
:10073800C4F382241C5DE4B221FA04F48460926854
:10074800C2F342329B5CDBB2D940C1605DF8044B16
:10075800704700BF00F44073B3F5407F0CD14FF4ED
:100768006053C4F20203996821F4F81120F0704232
:1007780022F440720A439A604FF46053C4F20203B1
:100788001A6FC0F30B0010431867704740F63C63BC
:10079800C4F24723186070474FF46463C4F24723D8
:1007A800186070474FF4AE73C4F24723186070475F
:1007B80039B14FF46053C4F202031A6B1043186343
:1007C80070474FF46053C4F202031A6B22EA000028
:1007D8001863704739B14FF46053C4F202035A6B7F
:1007E8001043586370474FF46053C4F202035A6BC6
:1007F80022EA00005863704739B14FF46053C4F2DD
:1008080002039A6B1043986370474FF46053C4F225
:1008180002039A6B22EA00009863704739B14FF4DB
:100828006053C4F202031A6C1043186470474FF403
:100838006053C4F202031A6C22EA0000186470477D
:1008480039B14FF46053C4F202035A6C1043586430
:1008580070474FF46053C4F202035A6C22EA000056
:100868005864704739B14FF46053C4F202031A69EF
:100878001043186170474FF46053C4F202031A69B9
:1008880022EA00001861704739B14FF46053C4F28E
:1008980002035A691043586170474FF46053C4F219
:1008A80002035A6922EA00005861704739B14FF4CF
:1008B8006053C4F202039A691043986170474FF479
:1008C8006053C4F202039A6922EA000098617047F3
:1008D80039B14FF46053C4F202031A6A1043186224
:1008E80070474FF46053C4F202031A6A22EA000008
:1008F8001862704739B14FF46053C4F202035A6A60
:100908001043586270474FF46053C4F202035A6AA6
:1009180022EA00005862704739B14FF46053C4F2BC
:1009280002031A6D1043186570474FF46053C4F200
:1009380002031A6D22EA00001865704739B14FF4B6
:100948006053C4F202035A6D1043586570474FF460
:100958006053C4F202035A6D22EA000058657047DA
:1009680039B14FF46053C4F202039A6D104398658D
:1009780070474FF46053C4F202039A6D22EA0000F4
:100988009865704739B14FF46053C4F202031A6E88
:100998001043186670474FF46053C4F202031A6E8E
:1009A80022EA00001866704739B14FF46053C4F268
:1009B80002035A6E1043586670474FF46053C4F2EE
:1009C80002035A6E22EA00005866704739B143F6AE
:1009D8000D03C4F202031A7810431870704743F6E7
:1009E8000D03C4F202031A7822EA00001870704757
:1009F8004309012B05D14FF46053C4F202031B686D
:100A080007E0022B4FF46053C4F202030CBF1B6FC4
:100A18005B6F00F01F0023FA00F000F00100704740
:100A280010B582B00023019331242046FFF7E0FF80
:100A3800019B01330193019BB3F5A06F01D00028FE
:100A4800F3D03120FFF7D4FF003018BF012002B0E7
:100A580010BD00BF4FF46053C4F202035A6F42F056
:100A680080725A67704700BF4FF46053C4F20203A4
:100A7800DB6818420CBF00200120704743F60E03C4
:100A8800C4F202031870704708B50023C4F20203C9
:100A9800984208D101200146FFF7E4FE0120002119
:100AA800FFF7E0FE08BD4FF48063C4F202039842EA
:100AB80008D102200121FFF7D5FE02200021FFF70F
:100AC800D1FE08BD4FF40063C4F20203984208D176
:100AD80004200121FFF7C6FE04200021FFF7C2FE13
:100AE80008BD4FF44063C4F20203984208D10820BD
:100AF8000121FFF7B7FE08200021FFF7B3FE08BD6C
:100B08004FF48053C4F20203984208D11020012107
:100B1800FFF7A8FE10200021FFF7A4FE08BD4FF440
:100B2800A053C4F20203984208D120200121FFF704
:100B380099FE20200021FFF795FE08BD4FF4C05311
:100B4800C4F20203984208D140200121FFF78AFE2F
:100B580040200021FFF786FE08BD4FF4E053C4F2A1
:100B68000203984208D180200121FFF77BFE8020F4
:100B78000021FFF777FE08BD4FF40053C4F20203CB
:100B8800984209D14FF480700121FFF76BFE4FF4B2
:100B980080700021FFF766FE08BD00BFF0B4002397
:100BA8000125032605FA03F20C681440944238D153
:100BB80007685A0006FA02F4E4432740076007680A
:100BC80091F804C00CFA02FC4CEA070707600F7999
:100BD800013FFFB2012F16D887683C4084608768C0
:100BE8004C7994403C43846047689CB205FA04FC05
:100BF80027EA0C074760476891F806C00CFA04F426
:100C0800A4B23C434460C7689CB2640006FA04F48A
:100C180027EA0404C460C468CF7907FA02F22243C1
:100C2800C2600133102BBDD1F0BC70474FF6FF7383
:100C380003600023037143718371C371704700BF60
:100C480082B04FF480330193019B0B430193019BC6
:100C5800C361C161019BC361C3690193C369019306
:100C680002B07047036919420CBF00200120704789
:100C7800006980B2704700BF436919420CBF002069
:100C880001207047406980B2704700BF01837047F8
:100C9800418370470AB1018370474183704700BFA1
:100CA80041617047436959404161704710B401F090
:100CB80007039B00C90800EB8100046A0F219940D3
:100CC80024EA01010162016A9A40114301625DF858
:100CD800044B704730B4048C24F001042404240C21
:100CE8000484048B058C24F0F3042404240C22438C
:100CF80042EA03139CB225F00A021204120C42F0D5
:100D0800010211430483018430BC704730B4048C61
:100D180024F010042404240C0484048B058C24F48B
:100D280040742405240D44EA022242EA03339BB2AC
:100D380025F0A0052D042D0C45F0100545EA0111FC
:100D48008DB20383058430BC704700BF08B500230B
:100D5800C4F20103984208D101200146FFF7CAFDF9
:100D680001200021FFF7C6FD08BDB0F1804F08D172
:100D780001200146FFF7ACFD01200021FFF7A8FD87
:100D880008BD4FF48063C4F20003984208D10220E2
:100D98000121FFF79DFD02200021FFF799FD08BD05
:100DA8004FF40063C4F20003984208D104200121E3
:100DB800FFF78EFD04200021FFF78AFD08BD4FF4E0
:100DC8004063C4F20003984208D108200121FFF7CC
:100DD8007FFD08200021FFF77BFD08BD4FF48053FD
:100DE800C4F20003984208D110200121FFF770FDDA
:100DF80010200021FFF76CFD08BD4FF4A053C4F28A
:100E08000003984208D120200121FFF761FD20202E
:100E18000021FFF75DFD08BD4FF48063C4F20103B4
:100E2800984208D102200121FFF764FD0220002129
:100E3800FFF760FD08BD4FF48043C4F201039842F8
:100E48000AD14FF480300121FFF754FD4FF4803070
:100E58000021FFF74FFD08BD4FF48843C4F201039A
:100E680098420AD14FF400300121FFF743FD4FF4B7
:100E780000300021FFF73EFD08BD4FF49043C4F257
:100E8800010398420AD14FF480200121FFF732FD77
:100E98004FF480200021FFF72DFD08BD4FF4C0530B
:100EA800C4F20003984208D140200121FFF710FD49
:100EB80040200021FFF70CFD08BD4FF4E053C4F2B9
:100EC8000003984208D180200121FFF701FD80200E
:100ED8000021FFF7FDFC08BD4FF40053C4F20003E6
:100EE800984209D14FF480700121FFF7F1FC4FF4CB
:100EF80080700021FFF7ECFC08BD00BF70B40388C8
:100F08009BB24FF48064C4F201040022C4F20102CF
:100F1800904218BFA04214BF0022012214D04FF4FF
:100F28008064C4F20004A04218BFB0F1804F0BD017
:100F38004FF40065C4F200054FF44064C4F20004A5
:100F4800A04218BFA84204D14FF68F751D404B88A8
:100F58002B434FF4A056C4F200064FF48055C4F258
:100F68000005B04218BFA8421FBF4FF6FF441C40FF
:100F78000B89234303804B68C3620B8803850AB13E
:100F88008B7A03860123838270BC70474FF0FF334E
:100F9800436000230380038143808372704700BF4E
:100FA80001858282704700BF038823F070031B0409
:100FB8001B0C19430180704741627047C16270473A
:100FC800406A7047008D80B2704700BF29B103881E
:100FD8009BB243F0020303807047038823F00203A7
:100FE8001B041B0C0380704729B103889BB243F094
:100FF800040303807047038823F004031B041B0CBD
:101008000380704729B103889BB243F080030380B3
:101018007047038823F080031B041B0C0380704770
:10102800038823F008031B041B0C038003889BB26E
:1010380019430180704700BF038823F440731B04E1
:101048001B0C038003889BB219430180704700BFC3
:1010580029B103889BB243F00103038070470388DA
:1010680023F001031B041B0C0380704770B4038C2E
:1010780023F001031B041B0C0384038C8488A4B293
:10108800028B22F073021204120C0D882A4323F0FB
:1010980002031B041B0C4E888D893543ADB22B43CC
:1010A8004FF48066C4F201060025C4F20105A84287
:1010B80018BFB04211D14FF6F7751D40CB891D43BB
:1010C8004FF6FB732B408D882B434FF6FF45254089
:1010D8004E8A0C8A3443A4B22C43848002838A68E3
:1010E8004263038470BC704770B4038C23F0100310
:1010F8001B041B0C0384038C8488A4B2028B22F487
:10110800E6421204120C0D8842EA052292B223F03C
:1011180020031B041B0C8D8943EA05134D8843EA01
:1011280005139BB24FF48066C4F201060025C4F291
:101138000105A84218BFB04216D14FF67F751D4071
:10114800CB8945EA03154FF6BF732B408D8843EAD8
:1011580005139BB24FF2FF3525400C8A45EA8405FA
:101168004C8A45EA8404A4B2848002838A68826334
:10117800038470BC704700BF70B4038C23F4807381
:101188001B041B0C0384038C8488A4B2828B22F07A
:1011980073021204120C0D882A4323F400731B04F3
:1011A8001B0C8D8943EA05234D8843EA05239BB22E
:1011B8004FF48066C4F201060025C4F20105A84276
:1011C80018BFB04216D14FF2FF751D40CB8945EAD2
:1011D80003254FF6FF332B408D8843EA05239BB246
:1011E8004CF6FF7525400C8A45EA04154C8A45EAF9
:1011F8000414A4B2848082838A68C263038470BCA6
:10120800704700BF70B4038C23F480531B041B0C7D
:101218000384038C8488A4B2828B22F4E6421204ED
:10122800120C0D8842EA052292B223F400531B04E3
:101238001B0C8D8943EA05334D8843EA05339BB27D
:101248004FF48066C4F201060025C4F20105A842E5
:1012580018BFB04201BF4BF6FF7525400C8A45EA1E
:10126800841408BFA4B2848082838A6802640384D9
:1012780070BC704700230380438083808360838130
:10128800C38103824382704730B400F11803058C90
:10129800ADB201248C4025EA040404844FF6F770AB
:1012A800084048B949085C584FF68F70204058509C
:1012B800585802435A500CE00439C1F34E01CC5837
:1012C80048F6FF702040C850C858120292B2024334
:1012D800CA5030BC704700BF416370478163704794
:1012E800C163704701647047038B23F070031B04CC
:1012F8001B0C194301837047038B23F4E0431B0441
:101308001B0C43EA01218BB203837047838B23F0C4
:1013180070031B041B0C194381837047838B23F4D0
:10132800E0431B041B0C43EA01218BB28383704703
:10133800038B23F008031B041B0C1943018370471C
:10134800038B23F400631B041B0C43EA01218BB2BB
:1013580003837047838B23F008031B041B0C19437A
:1013680081837047838B23F400631B041B0C43EABF
:1013780001218BB283837047038B23F004031B0482
:101388001B0C194301837047038B23F480631B04F0
:101398001B0C43EA01218BB203837047838B23F034
:1013A80004031B041B0C194381837047838B23F4AC
:1013B80080631B041B0C43EA01218BB283837047B3
:1013C800038B23F080031B041B0C19430183704714
:1013D800038BC3F30E0343EA01218BB203837047E7
:1013E800838B23F080031B041B0C194381837047F4
:1013F800838BC3F30E0343EA01218BB283837047C7
:10140800038C23F002031B041B0C1943018470474F
:10141800038C23F008031B041B0C19430184704739
:10142800038C23F020031B041B0C43EA01118BB22D
:1014380003847047038C23F080031B041B0C43EACE
:1014480001118BB203847047038C23F400731B04CF
:101458001B0C43EA01218BB203847047038C23F4ED
:1014680000631B041B0C43EA01218BB20384704701
:10147800038C23F400531B041B0C43EA01318BB289
:101488000384704710B4048CA4B201238B4024EA6F
:1014980003030384038C8A4013439BB203845DF8DF
:1014A800044B704710B4048CA4B204238B4024EA84
:1014B80003030384038C8A4013439BB203845DF8BF
:1014C800044B704700230380438001228280C3803D
:1014D80003817047406B7047806B7047C06B7047E3
:1014E800006C7047038B23F00C031B041B0C038355
:1014F800038B9BB219430183704700BF038B23F40E
:1015080040631B041B0C0383038B9BB243EA01213A
:101518008BB20383704700BFF8B505460C4649886F
:1015280000290CBF02270027A388012B14BF01261E
:101538000226228892B91A462389FFF7CBFB284650
:10154800E188FFF7CFFF2846394632462389FFF75F
:10155800DDFB2846E188FFF7D1FFF8BD1A4623894D
:10156800FFF7D4FB2846E188FFF7C8FF284639462D
:1015780032462389FFF7AEFB2846E188FFF7B2FF22
:10158800F8BD00BF838B23F00C031B041B0C838363
:10159800838B9BB219438183704700BF838B23F4ED
:1015A80040631B041B0C8383838B9BB243EA01219A
:1015B8008BB28383704700BFF8B504460D460B888D
:1015C8004BB94988AA882B89FFF784FB2046E9880C
:1015D800FFF788FFF8BD042B09D14988AA882B8911
:1015E800FFF794FB2046E988FFF788FFF8BD082B32
:1015F80022D148888E880F89218C21F480710904B2
:10160800090C2184A28B238C22F0F3021204120C01
:1016180042EA071292B2324323F420631B041B0CE4
:1016280043EA00239BB243F48073A28323842046B9
:10163800E988FFF7A7FFF8BD48888F880E89218CB5
:1016480021F480510904090C2184A28B238C22F4F3
:1016580040721205120D42EA072242EA063292B29D
:1016680023F400535B045B0C43EA00339BB243F45E
:101678008053A28323842046E988FFF78FFFF8BDB3
:101688004A880B8813438A881343CA8813430A89F4
:1016980013434A8913438A8913439BB2A0F8443001
:1016A800704700BF0023038043808380C380038189
:1016B80043818381704700BF49B1B0F844306FEA75
:1016C80043436FEA53439BB2A0F844307047B0F8E5
:1016D8004430C3F30E03A0F84430704729B183881F
:1016E8009BB243F0040383807047838823F004038C
:1016F8001B041B0C8380704729B183889BB243F07D
:10170800010383807047838823F001031B041B0CAB
:101718008380704722B183899BB2194381817047C6
:1017280083899BB223EA01018181704781827047D6
:10173800038A19420CBF002001207047C94389B2AF
:1017480001827047038A828911420CBF0020012060
:1017580019420CBF002000F001007047C94389B24C
:10176800018270470A43A0F84820704722B1838954
:101778009BB219438181704783899BB223EA010197
:101788008181704729B183889BB243F00803838025
:101798007047838823F008031B041B0C8380704761
:1017A800038923F007031B041B0C0381704700BF48
:1017B800038923F070031B041B0C1943018103895F
:1017C8009BB243F007030381704700BF38B5044656
:1017D8000D46602904D111460122FFF797FA03E06C
:1017E80011460122FFF776FA238923F070031B04C0
:1017F8001B0C2B43238123899BB243F007032381CE
:1018080038BD00BF038923F070031B041B0C194368
:1018180001817047838823F070031B041B0C8380AD
:1018280083889BB219438180704700BF038923F0E6
:1018380007031B041B0C038103899BB21943018115
:10184800704700BF038923F080031B041B0C03812E
:1018580003899BB219430181704700BF10B4048902
:10186800E4B221430A4342EA03239CB204815DF8AF
:10187800044B704710B50446FFF7F0FF238923F0A7
:1018880077031B041B0C43F07703238110BD00BFB3
:1018980010B50446FFF7E2FF23899BB243F4804367
:1018A800238110BD70B40589048B068C25F00705CB
:1018B8002D042D0C294324F4407424F0030424043B
:1018C800240C44F4807444F0010426F02206360403
:1018D800360C324342EA03139EB201810483068424
:1018E80070BC704729B183889BB243F08003838022
:1018F8007047838823F080031B041B0C8380704788
:10190800A0F85010704700BF40F21803C2F200035D
:1019180047F64002C0F27D121A6070474FF46D42DC
:10192800CEF2000240F21803D2F88800C2F2000397
:1019380047F6400140F47000C0F27D11C2F88800FB
:101948001960704781F0004102E000BF83F0004356
:1019580030B54FEA41044FEA430594EA050F08BF42
:1019680090EA020F1FBF54EA000C55EA020C7FEA06
:10197800645C7FEA655C00F0E2804FEA5454D4EB83
:101988005555B8BF6D420CDD2C4480EA020281EA4D
:10199800030382EA000083EA010180EA020281EA85
:1019A8000303362D88BF30BD11F0004F4FEA0131D7
:1019B8004FF4801C4CEA113102D0404261EB4101E6
:1019C80013F0004F4FEA03334CEA133302D052426C
:1019D80063EB430394EA050F00F0A780A4F1010428
:1019E800D5F1200E0DDB02FA0EFC22FA05F2801862
:1019F80041F1000103FA0EF2801843FA05F3594148
:101A08000EE0A5F120050EF1200E012A03FA0EFCC6
:101A180028BF4CF0020C43FA05F3C01851EBE371F0
:101A280001F0004507D54FF0000EDCF1000C7EEB0D
:101A380000006EEB0101B1F5801F1BD3B1F5001F4B
:101A48000CD349085FEA30004FEA3C0C04F101046A
:101A58004FEA445212F5800F80F09A80BCF1004F93
:101A680008BF5FEA500C50F1000041EB045141EA15
:101A7800050130BD5FEA4C0C404141EB010111F416
:101A8800801FA4F10104E9D191F0000F04BF0146C1
:101A98000020B1FA81F308BF2033A3F10B03B3F19F
:101AA80020020CDA0C3208DD02F1140CC2F10C022F
:101AB80001FA0CF021FA02F10CE002F11402D8BF8D
:101AC800C2F1200C01FA02F120FA0CFCDCBF41EA59
:101AD8000C019040E41AA2BF01EB0451294330BD28
:101AE8006FEA04041F3C1CDA0C340EDC04F1140405
:101AF800C4F1200220FA04F001FA02F340EA0300DC
:101B080021FA04F345EA030130BDC4F10C04C4F121
:101B1800200220FA02F001FA04F340EA0300294601
:101B280030BD21FA04F0294630BD94F0000F83F44B
:101B3800801306BF81F480110134013D4EE77FEA2E
:101B4800645C18BF7FEA655C29D094EA050F08BF7A
:101B580090EA020F05D054EA000C04BF194610465B
:101B680030BD91EA030F1EBF0021002030BD5FEA9F
:101B7800545C05D14000494128BF41F0004130BDC7
:101B880014F580043CBF01F5801130BD01F000451B
:101B980045F0FE4141F470014FF0000030BD7FEA8E
:101BA800645C1ABF194610467FEA655C1CBF0B4689
:101BB800024650EA013406BF52EA033591EA030FA0
:101BC80041F4002130BD00BF90F0000F04BF002198
:101BD800704730B54FF4806404F132044FF00005CB
:101BE8004FF0000150E700BF90F0000F04BF002144
:101BF800704730B54FF4806404F1320410F00045AA
:101C080048BF40424FF000013EE700BF42004FEAA4
:101C1800E2014FEA31014FEA02701FBF12F07F4321
:101C280093F07F4F81F06051704792F0000F14BF1E
:101C380093F07F4F704730B54FF4607401F0004562
:101C480021F0004120E700BF50EA010208BF7047B9
:101C580030B54FF000050AE050EA010208BF7047AE
:101C680030B511F0004502D5404261EB41014FF417
:101C7800806404F132045FEA915C3FF4DCAE4FF01B
:101C880003025FEADC0C18BF03325FEADC0C18BF02
:101C9800033202EBDC02C2F1200300FA03FC20FA53
:101CA80002F001FA03FE40EA0E0021FA02F11444A0
:101CB800C1E600BF70B54FF0FF0C4CF4E06C1CEAB5
:101CC80011541DBF1CEA135594EA0C0F95EA0C0F2A
:101CD80000F0DEF82C4481EA030621EA4C5123EA9D
:101CE8004C5350EA013518BF52EA033541F48011CC
:101CF80043F4801338D0A0FB02CE4FF00005E1FB7F
:101D080002E506F00042E0FB03E54FF00006E1FBC8
:101D180003569CF0000F18BF4EF0010EA4F1FF040B
:101D2800B6F5007F64F5407404D25FEA4E0E6D414B
:101D380046EB060642EAC62141EA55514FEAC5205C
:101D480040EA5E504FEACE2EB4F1FD0C88BFBCF5D8
:101D5800E06F1ED8BEF1004F08BF5FEA500E50F189
:101D6800000041EB045170BD06F0004646EA01014F
:101D780040EA020081EA0301B4EB5C04C2BFD4EB81
:101D88000C0541EA045170BD41F480114FF0000E7A
:101D9800013C00F3AB8014F1360FDEBF002001F0E8
:101DA800004170BDC4F10004203C35DA0C341BDC62
:101DB80004F11404C4F1200500FA05F320FA04F034
:101DC80001FA05F240EA020001F0004221F0004168
:101DD80010EBD37021FA04F642EB06015EEA430EDB
:101DE80008BF20EAD37070BDC4F10C04C4F120050B
:101DF80000FA04F320FA05F001FA04F240EA0200BE
:101E080001F0004110EBD37041F100015EEA430E8E
:101E180008BF20EAD37070BDC4F1200500FA05F2AE
:101E28004EEA020E20FA04F301FA05F243EA02032D
:101E380021FA04F001F0004121FA04F220EA02003C
:101E480000EBD3705EEA430E08BF20EAD37070BD82
:101E580094F0000F0FD101F00046400041EB010162
:101E680011F4801F08BF013CF7D041EA060195F044
:101E7800000F18BF704703F00046520043EB0303FE
:101E880013F4801F08BF013DF7D043EA06037047EB
:101E980094EA0C0F0CEA135518BF95EA0C0F0CD0F6
:101EA80050EA410618BF52EA4306D1D181EA03013C
:101EB80001F000414FF0000070BD50EA410606BF36
:101EC8001046194652EA430619D094EA0C0F02D17B
:101ED80050EA013613D195EA0C0F05D152EA0336C0
:101EE8001CBF104619460AD181EA030101F00041DE
:101EF80041F0FE4141F470014FF0000070BD41F027
:101F0800FE4141F4780170BD70B54FF0FF0C4CF400
:101F1800E06C1CEA11541DBF1CEA135594EA0C0F1F
:101F280095EA0C0F00F0A7F8A4EB050481EA030E6C
:101F380052EA03354FEA013100F088804FEA033353
:101F48004FF0805545EA131343EA12634FEA022221
:101F580045EA111545EA10654FEA00260EF00041E2
:101F68009D4208BF964244F1FD0404F5407402D234
:101F78005B084FEA3202B61A65EB03055B084FEAC5
:101F880032024FF480104FF4002CB6EB020E75EBC2
:101F9800030E22BFB61A754640EA0C005B084FEAEA
:101FA8003202B6EB020E75EB030E22BFB61A754667
:101FB80040EA5C005B084FEA3202B6EB020E75EBB2
:101FC800030E22BFB61A754640EA9C005B084FEA2A
:101FD8003202B6EB020E75EB030E22BFB61A754637
:101FE80040EADC0055EA060E18D04FEA051545EA26
:101FF80016754FEA06164FEAC30343EA52734FEACF
:10200800C2025FEA1C1CC0D111F4801F0BD141EA47
:1020180000014FF000004FF0004CB6E711F4801FAC
:1020280004BF01430020B4F1FD0C88BFBCF5E06F8C
:102038003FF6AFAEB5EB030C04BFB6EB020C5FEA9C
:10204800500C50F1000041EB045170BD0EF0004EF1
:102058004EEA113114EB5C04C2BFD4EB0C0541EA23
:10206800045170BD41F480114FF0000E013C90E620
:1020780045EA060E8DE60CEA135594EA0C0F08BFE4
:1020880095EA0C0F3FF43BAF94EA0C0F0AD150EAE3
:1020980001347FF434AF95EA0C0F7FF425AF104676
:1020A80019462CE795EA0C0F06D152EA03353FF49E
:1020B800FDAE1046194622E750EA410618BF52EA1B
:1020C80043067FF4C5AE50EA41047FF40DAF52EAEF
:1020D80043057FF4EBAE12E74A0011D212F5001265
:1020E80011D20DD56FF47873B3EB62520ED44FEA68
:1020F800C12343F0004343EA505323FA02F07047E8
:102108004FF00000704750EA013002D14FF0FF3025
:1021180070474FF0000070474FEA4102B2F1E043C8
:1021280024BFB3F5001CDCF1FE5C0DD901F0004CB6
:102138004FEAC0024CEA5070B2F1004F40EB830006
:1021480008BF20F00100704711F0804F21D113F132
:102158003872BCBF01F00040704741F480114FEA6B
:102168005252C2F11802C2F1200C10FA0CF320FAF4
:1021780002F018BF40F001004FEAC1234FEAD32311
:1021880003FA0CFC40EA0C0023FA02F34FEA43037B
:10219800CCE77FEA625307D150EA01331EBF4FF004
:1021A800FE4040F44000704701F0004040F0FE401F
:1021B80040F40000704700BF014600200246034675
:1021C80000F000B8F0B542F20854C0F6000485B03B
:1021D8002668D6F848410746002C44D065681F2D6C
:1021E80021DD40F20004C0F200041CB94FF0FF30BA
:1021F80005B0F0BD4FF4C870039102920193AFF39C
:1022080000800399029A019B04460028EED0D6F874
:1022180048510020256060600546C6F84841C4F86A
:102228008801C4F88C013FB9AB1C002001356560FA
:1022380044F8231005B0F0BD04EB85004FF0010C05
:10224800C0F88820D4F888610CFA05F21643022FEA
:10225800C4F88861C0F8083102BFD4F88C311A4339
:10226800C4F88C21E0E706F5A674C6F84841B5E73E
:1022780008B50021044600F09DF842F20853C0F664
:1022880000031868C36B03B19847204600F04AE979
:1022980038B542F23C5442F23855C0F60005C0F653
:1022A8000004641BA41018BF05EB840505D0013C8D
:1022B80055F8043D9847002CF9D1BDE8384000F0A6
:1022C8002BB900BF70B542F2345642F23455C0F60D
:1022D8000005C0F60006761BB6101CBF043D00249E
:1022E80005D0013455F8043F9847A642F9D142F287
:1022F800385642F23455C0F60005C0F60006761B83
:1023080000F004F9B6101CBF043D002406D00134C7
:1023180055F8043F9847A642F9D170BD70BD00BF7B
:10232800F0B4840743D0541E002A3ED0CDB20346F1
:1023380003E0621E002C38D0144603F8015B9A07AC
:10234800F7D1032C2AD9CDB245EA05250F2C45EA49
:10235800054515D9A4F110073F0903F1100606EB4E
:1023680007161A46156055609560D5601032B2425E
:10237800F8D104F00F040137032C03EB07130DD930
:102388001E462246043A032A46F8045BFAD8221F5E
:1023980022F003020432134404F003042CB1C9B23E
:1023A8001C4403F8011BA342FBD1F0BC7047144640
:1023B8000346C6E72DE9F04F42F20853C0F6000382
:1023C80085B01B68029040F200020193C0F200023F
:1023D80003F5A4730F46039300924FF00109019A85
:1023E800D2F84881B8F1000F1AD0DDF80CA0D8F85F
:1023F80004305C1E5FBF08F188059E1C05EB830551
:1024080008EB86060AD477B1EB6FBB420BD0013CD0
:10241800631CA5F10405A6F10406F4D1009B7BBB5F
:1024280005B0BDE8F08FD8F8042056F8043C013A0E
:10243800A24216BF0022C8F8044046F8042C002B1C
:10244800E5D0D8F88811D8F804B009FA04F20A429D
:1024580010D0D8F88C110A420ED1029855F8041CF5
:102468009847D8F804305B45B9D1DAF800304345CD
:10247800CDD0B4E79847F4E755F8040C9847F0E74F
:10248800D8F804306BB9D8F8003063B14046CAF8C0
:102498000030AFF30080DAF80080B8F1000FA6D161
:1024A800BEE7D8F80030C2469846F6E7002100F0AB
:1024B80004B80D4B5B58435004310C480C4B421880
:1024C8009A42FFF4F6AF0B4A00F003B8002342F833
:1024D800043B094B9A42FFF4F9AFFFF71FFAFFF7E5
:1024E800F1FEFDF7E5FE70473C25000800000020DE
:1024F800500400205404002074040020FFF7FEBF9D
:10250800280000204300000000000000F8B500BFCC
:10251800F8BC08BC9E467047F8B500BFF8BC08BCBC
:042528009E46704714
:08252C0024DDFF7F0100000027
:042534001102000888
:04253800E1010008B5
:10253C000000000000000041000000000102030444
:10254C00010203040607080940787D010000000021
:10255C0028000020000000000000000014030020F0
:10256C007C030020E40300200000000000000000B9
:10257C00000000000000000000000000000000004F
:10258C000000000000000000000000000C25000806
:10259C00000000000000000000000000000000002F
:1025AC00000000000000000000000000000000001F
:1025BC00000000000000000000000000000000000F
:1025CC0000000000000000000000000000000000FF
:1025DC0000000000000000000000000000000000EF
:1025EC0000000000000000000000000000000000DF
:1025FC0000000000000000000000000000000000CF
:10260C0001000000000000000E33CDAB34126DE66B
:10261C00ECDE05000B0000000000000000000000D4
:10262C00000000000000000000000000000000009E
:10263C00000000000000000000000000000000008E
:10264C00000000000000000000000000000000007E
:10265C00000000000000000000000000000000006E
:04298C000000000047
:04000005080024B516
:00000001FF
