:020000040800F2
:10000000000002206D2A0008510600085D06000865
:10001000650600086D06000875060008000000006F
:100020000000000000000000000000007D06000845
:10003000890600080000000095060008A1060008D7
:10004000B92A0008B92A0008B92A0008B92A000804
:10005000B92A0008B92A0008B92A0008B92A0008F4
:10006000B92A0008B92A0008B92A0008B92A0008E4
:10007000B92A0008B92A0008B92A0008B92A0008D4
:10008000B92A0008B92A0008B92A0008B92A0008C4
:10009000B92A0008B92A0008B92A0008B92A0008B4
:1000A000B92A0008B92A0008B92A0008B92A0008A4
:1000B000B92A0008B92A0008B92A0008B92A000894
:1000C000B92A0008B92A0008B92A0008B92A000884
:1000D000B92A0008B92A0008B92A0008B92A000874
:1000E000B92A0008B92A0008B92A0008B92A000864
:1000F000B92A0008B92A0008B92A0008B92A000854
:10010000B92A0008B92A0008B92A0008B92A000843
:10011000B92A0008B92A0008B92A0008B92A000833
:10012000B92A0008B92A0008B92A0008B92A000823
:10013000B92A0008B92A0008B92A0008B92A000813
:10014000B92A0008B92A0008B92A0008B92A000803
:10015000B92A0008B92A0008B92A0008B92A0008F3
:10016000B92A0008B92A0008B92A0008B92A0008E3
:10017000B92A0008B92A0008B92A0008B92A0008D3
:08018000B92A0008B92A0008A1
:1001880008B540F26440074BC2F200001B1A062B68
:1001980000D808BD40F20003C0F20003002BF8D0DD
:1001A8009847F6E76704002008B540F2644040F23B
:1001B8006443C2F20003C2F200001B1A9B1003EB57
:1001C800D373591000D108BD40F20002C0F20002FA
:1001D800002AF8D09047F6E710B540F26444C2F21E
:1001E8000004237873B9FFF7CBFF40F20003C0F295
:1001F80000032BB142F6C420C0F60000AFF3008024
:100208000123237010BD00BF08B540F20003C0F2FF
:1002180000034BB142F6C42040F26841C0F600002A
:10022800C2F20001AFF3008040F26040C2F2000069
:1002380003682BB140F20003C0F2000303B19847F2
:10024800BDE80840FFF7B0BF134B002B08BF114BA8
:100258009D46A3F5803A00218B460F461148124A65
:10026800121A02F039FB0D4B002B00D098470C4BAB
:10027800002B00D098470020002104000D000B48F7
:1002880002F076FA02F0FAFA2000290000F010F8DD
:1002980002F0CAFA00000800000000000000000098
:1002A8000000000064040020840400205128000895
:1002B80080B500AF00F00AF800F0F4F9B1EE0E0ACC
:1002C80000F09CFA002000F0CBFAFEE780B500AF02
:1002D8004FF46D43CEF200034FF46D42CEF20002AC
:1002E800D2F8882042F47002C3F888204FF4605393
:1002F800C4F202034FF46052C4F20202126842F0E0
:1003080001021A604FF46053C4F2020300229A609B
:100318004FF46053C4F202034FF46052C4F2020275
:10032800126822F0847222F480321A604FF460530B
:10033800C4F2020343F21002C2F200425A604FF4C0
:100348006053C4F202034FF46052C4F2020212680E
:1003580022F480221A604FF46053C4F20203002290
:10036800DA6000F0B3F84FF46D43CEF200034FF0BB
:1003780000629A6080BD00BF80B487B000AF0023E0
:100388003B6100237B610223FB600023BB600223E7
:100398007B604FF46053C4F202039B6803F00C03C4
:1003A8003B613B69042B0DD0082B15D0002B63D182
:1003B80040F20403C2F200034FF41052C0F2F402F8
:1003C8001A6063E040F20403C2F2000347F64002F9
:1003D800C0F27D121A6059E04FF46053C4F2020370
:1003E8005B6803F480039B0DBB604FF46053C4F259
:1003F80002035B6803F03F037B60BB68002B13D0EC
:1004080047F64003C0F27D137A68B3FBF2F24FF46B
:100418006053C4F20203596847F6C0730B409B0946
:1004280003FB02F37B6112E04FF41053C0F2F403B4
:100438007A68B3FBF2F24FF46053C4F202035968CE
:1004480047F6C0730B409B0903FB02F37B614FF433
:100458006053C4F202035B6803F440331B0C01339E
:100468005B00FB607A69FB68B2FBF3F240F20403BD
:10047800C2F200031A6009E040F20403C2F200036A
:100488004FF41052C0F2F4021A6000BF4FF46053E8
:10049800C4F202039B6803F0F0031A0940F2080350
:1004A800C2F200039B5CDBB23B6140F20403C2F280
:1004B80000031A683B69DA4040F20403C2F2000301
:1004C8001A601C37BD465DF8047B704780B483B062
:1004D80000AF00237B6000233B604FF46053C4F2FD
:1004E80002034FF46052C4F20202126842F48032EE
:1004F8001A604FF46053C4F202031B6803F400331C
:100508003B607B6801337B603B68002B03D17B68D1
:10051800B3F5A06FEDD14FF46053C4F202031B682A
:1005280003F40033002B02D001233B6001E00023D9
:100538003B603B68012B40F082804FF46053C4F26B
:1005480002034FF46052C4F20202126C42F080526D
:100558001A644FF4E043C4F200034FF4E042C4F2DB
:100568000002126842F480421A604FF46053C4F2E9
:1005780002034FF46052C4F2020292689A604FF488
:100588006053C4F202034FF46052C4F2020292684C
:1005980042F400429A604FF46053C4F202034FF4ED
:1005A8006052C4F20202926842F4A0529A604FF478
:1005B8006053C4F2020345F20842C0F240725A6026
:1005C8004FF46053C4F202034FF46052C4F20202C3
:1005D800126842F080721A6000BF4FF46053C4F290
:1005E80002031B6803F00073002BF6D04FF470531E
:1005F800C4F2020340F205621A604FF46053C4F279
:1006080002034FF46052C4F20202926822F003021D
:100618009A604FF46053C4F202034FF46052C4F27C
:100628000202926842F002029A6000BF4FF46053DF
:10063800C4F202039B6803F00C03082BF6D10C37B5
:10064800BD465DF8047B704780B400AFBD465DF8D9
:10065800047B704780B400AFFEE700BF80B400AFF2
:10066800FEE700BF80B400AFFEE700BF80B400AF74
:10067800FEE700BF80B400AFBD465DF8047B70475D
:1006880080B400AFBD465DF8047B704780B400AF0E
:10069800BD465DF8047B704780B400AFBD465DF889
:1006A800047B704780B58AB000AF0220012100F0BA
:1006B800F1FA0120012100F0C3FAC0237B61022373
:1006C8003B7603237B760023BB760123FB7607F179
:1006D80014030020C4F20200194600F05DFC00205B
:1006E800C4F202000621022200F0F6FC0020C4F247
:1006F80002000721022200F0EFFC1B23BB8340F21B
:100708008043C2F200034EF65F221A8040F2804313
:10071800C2F200031B883B620023BB840023FB83D7
:1007280007F11C034FF48060C4F20000194600F082
:10073800D1FD40F21803C2F2000393ED007ADFED19
:100748002E7A87EE277A40F28043C2F200031B8894
:10075800013306EE903AF8EEE67A67EE277AFCEE79
:10076800E77A17EE903A9AB240F28243C2F2000357
:100778001A8060233B8001237B8040F28243C2F2CF
:1007880000031B88BB600023BB813B464FF480609D
:10079800C4F20000194600F059FE4FF48060C4F21C
:1007A8000000082100F0D4FF01237B8040F282433F
:1007B800C2F200031B88BB603B464FF48060C4F262
:1007C8000000194600F08EFE4FF48060C4F200006D
:1007D800082100F0C5FF4FF48060C4F20000012139
:1007E80000F000FE4FF48060C4F20000012100F028
:1007F8001FFE2837BD4680BD0000C84280B582B0C4
:1008080000AF87ED010A97ED017ADFED147A87EEE4
:10081800277A40F28043C2F200031B88013306EEB8
:10082800903AF8EEE67A67EE277AFCEEE77A17EE6A
:10083800903A9AB240F28243C2F200031A8040F220
:100848008243C2F200031B884FF48060C4F20000A8
:10085800194600F051FF0837BD4680BD0000C84268
:1008680080B584B000AF0346FB7197F907301E2BA3
:1008780001DD1E23FB7197F9073013F11E0F01DA12
:10088800E223FB7197F907307933184601F0A8FC89
:1008980002460B461046194628A3D3E9002301F067
:1008A8002FFE02460B46104619464FF000024FF045
:1008B8000003C4F2590301F0F9FC02460B46104646
:1008C800194620A3D3E9002301F01AFE02460B467D
:1008D8001046194601F0FCFE0346FB6097ED037ACB
:1008E800DFED157A87EE277A40F28043C2F20003E3
:1008F8001B88013306EE903AF8EEE67A67EE277A1F
:10090800FCEEE77A17EE903A9AB240F28243C2F2CE
:1009180000031A8040F28243C2F200031B884FF49E
:100928008060C4F20000194600F0E8FE1037BD46AA
:1009380080BD00BFAFF300800000C8420000000087
:10094800406FF3407B14AE47E17A943FAFF30080E9
:10095800F02A000800000020600400206404002041
:10096800840400204FF46053C4F202030022196883
:1009780041F0010119609A60186843F2100120F0F3
:100988008470C2F2004120F4803018605960196800
:1009980021F480211960DA60704700BF43F6020332
:1009A800C4F2020300221A701870704782B0002344
:1009B8004FF460520193C4F2020213689B030FD4F0
:1009C800019B01330193019BB3F5A06FF5D14FF45F
:1009D8006053C4F202031868C0F3404002B0704785
:1009E800019B01330193019BF1E700BF4FF4605372
:1009F800C4F202031A6822F0F80242EAC000186042
:100A0800704700BF0023C4F247231860704700BF37
:100A180043F67003C4F20203002201281A701A7008
:100A280005D0042802D105221A7070477047187043
:100A3800704700BF4FF46863C4F2472318607047DB
:100A480010B4019C40EA04605B0801434FF4605411
:100A5800C4F20204013B41EA821242EA03436360A2
:100A68005DF8044B704700BF6023C4F24723186049
:100A7800704700BF4FF460530907C4F2020341EA0C
:100A88008010C3F8840070476823C4F247231860B5
:100A9800704700BF4C23C4F247231860704700BF5B
:100AA8004FF46053C4F202039A6822F0EC621143D7
:100AB80008439860704700BF4FF46053C4F20203C4
:100AC8009A6822F07842114308439860704700BF43
:100AD8004FF46053C4F202039A6822F003021043F1
:100AE800986070474FF46053C4F20203986800F0AE
:100AF8000C0070474FF46053C4F202039A6822F066
:100B0800F0021043986070474FF46053C4F2020338
:100B18009A6822F4E0521043986070474FF460538B
:100B2800C4F202039A6822F4604242EAC000986064
:100B3800704700BF4FF46053C4F2020310B49A68C0
:100B480002F00C02042A24D0082A28D04FF41051AD
:100B5800C0F2F40101604FF46052C4F2020240F2A4
:100B68001C039468C2F20003C4F303141C5DE14043
:100B780041609468C4F382241C5D21FA04F4846003
:100B880092685DF8044BC2F342329B5CD940C16065
:100B980070474FF49051C0F27A010160DBE75C685E
:100BA8005A6814F4800F5C6815BF4FF490534FF4E3
:100BB8001053C0F27A03C0F2F40302F03F02B3FB11
:100BC800F2F14FF46053C4F20203C4F388145B6873
:100BD800C3F30143013301FB04F15B00B1FBF3F103
:100BE8000160B8E700F44073B3F5407F0CD14FF4CF
:100BF8006053C4F2020320F070419A6821F44071F6
:100C080022F4F8120A439A604FF46053C4F20203C4
:100C1800C0F30B001A6F10431867704740F63C6327
:100C2800C4F24723186070474FF46463C4F2472343
:100C3800186070474FF4AE73C4F2472318607047CA
:100C48004FF46053C4F202031A6B19B922EA000088
:100C58001863704710431863704700BF4FF4605320
:100C6800C4F202035A6B19B922EA000058637047AC
:100C780010435863704700BF4FF46053C4F2020337
:100C88009A6B19B922EA0000986370471043986379
:100C9800704700BF4FF46053C4F202031A6C19B9CD
:100CA80022EA00001864704710431864704700BFB8
:100CB8004FF46053C4F202035A6C19B922EA0000D7
:100CC8005864704710435864704700BF4FF460532E
:100CD800C4F202031A6919B922EA000018617047C0
:100CE80010431861704700BF4FF46053C4F2020309
:100CF8005A6919B922EA00005861704710435861CF
:100D0800704700BF4FF46053C4F202039A6919B9DF
:100D180022EA00009861704710439861704700BF4D
:100D28004FF46053C4F202031A6A19B922EA0000A8
:100D38001862704710431862704700BF4FF4605341
:100D4800C4F202035A6A19B922EA000058627047CD
:100D580010435862704700BF4FF46053C4F2020357
:100D68001A6D19B922EA0000186570471043186512
:100D7800704700BF4FF46053C4F202035A6D19B9AB
:100D880022EA00005865704710435865704700BF55
:100D98004FF46053C4F202039A6D19B922EA0000B5
:100DA8009865704710439865704700BF4FF46053CB
:100DB800C4F202031A6E19B922EA000018667047D5
:100DC80010431866704700BF4FF46053C4F2020323
:100DD8005A6E19B922EA00005866704710435866DF
:100DE800704700BF43F60D03C4F202031A7819B91D
:100DF80022EA00001870704710431870704700BF4F
:100E08004309012B0ED0022B4FF46053C4F20203A6
:100E180000F01F000CBF1B6F5B6F23FA00F000F09F
:100E2800010070474FF46053C4F2020300F01F0042
:100E38001B6823FA00F000F0010070474FF460537C
:100E4800C4F202035A6F42F080725A67704700BFBB
:100E58004FF46053C4F20203DB6818420CBF002051
:100E68000120704743F60E03C4F20203187070475E
:100E780008B50023C4F2020398423CD04FF48063C3
:100E8800C4F20203984240D04FF40063C4F2020354
:100E9800984244D04FF44063C4F20203984248D0C9
:100EA8004FF48053C4F2020398424CD04FF4A0533D
:100EB800C4F20203984250D04FF4C053C4F2020364
:100EC800984254D04FF4E053C4F20203984258D0E9
:100ED8004FF40053C4F20203984200D008BD4FF407
:100EE80080700121FFF7F2FE4FF480700021BDE809
:100EF8000840FFF7EBBE01200146FFF7E7FE01209F
:100F08000021BDE80840FFF7E1BE02200121FFF7FC
:100F1800DDFE02200021BDE80840FFF7D7BE04200F
:100F28000121FFF7D3FE04200021BDE80840FFF7A8
:100F3800CDBE08200121FFF7C9FE08200021BDE829
:100F48000840FFF7C3BE10200121FFF7BFFE1020A5
:100F58000021BDE80840FFF7B9BE20200121FFF7B6
:100F6800B5FE20200021BDE80840FFF7AFBE4020B5
:100F78000121FFF7ABFE40200021BDE80840FFF744
:100F8800A5BE80200121FFF7A1FE80200021BDE839
:100F98000840FFF79BBE00BF00222DE9F00713466B
:100FA8000E6801274FF0030804E00133102B02F10B
:100FB80002022ED007FA03F404EA0605A542F4D18A
:100FC800D0F8009091F804C008FA02F4E44304EA67
:100FD8000909C0F80090D0F800900CFA02FA0CF158
:100FE800FF3C5FFA8CFC4AEA0909BCF1010FC0F822
:100FF800009011D9C56891F807C02C40C460C56835
:101008000CFA02F401332C43102BC46002F10202E3
:10101800D0D1BDE8F0077047D0F808A091F8059046
:1010280091F806C004EA0A0AC0F808A0D0F808A097
:1010380009FA02F949EA0A09C0F80890D0F80490B8
:1010480029EA0505456045680CFA03FC1FFA8CFC83
:101058004CEA05054560CDE700234FF6FF720260B4
:10106800037143718371C371704700BF82B04FF43D
:1010780080330193019B0B430193019BC361C161C1
:10108800019BC361C3690193C369019302B07047AF
:10109800036919420CBF002001207047006980B223
:1010A800704700BF436919420CBF002001207047F8
:1010B800406980B2704700BF018370474183704721
:1010C8000AB9418370470183704700BF4161704787
:1010D8004369594041617047CB0800EB830001F038
:1010E800070110B48900046A0F238B4024EA030324
:1010F8000362036A5DF8044B8A4013430362704736
:1011080008B50023C4F2010398425BD0B0F1804FC8
:1011180062D04FF48063C4F20003984266D04FF463
:101128000063C4F2000398426AD04FF44063C4F2EB
:10113800000398426ED04FF48053C4F200039842E3
:1011480072D04FF4A053C4F20003984276D04FF403
:101158008063C4F2010398427AD04FF48043C4F20A
:10116800010398427ED04FF48843C4F201039842A9
:1011780000F084804FF49043C4F20103984200F0D9
:1011880089804FF4C053C4F20003984200F08E8067
:101198004FF4E053C4F20003984200F091804FF4FA
:1011A8000053C4F20003984200D008BD4FF4807089
:1011B8000121FFF7B5FD4FF480700021BDE808401C
:1011C800FFF7AEBD01200146FFF7B8FD0120002161
:1011D800BDE80840FFF7B2BD01200146FFF7A0FDBA
:1011E80001200021BDE80840FFF79ABD0220012137
:1011F800FFF796FD02200021BDE80840FFF790BDEB
:1012080004200121FFF78CFD04200021BDE80840DF
:10121800FFF786BD08200121FFF782FD0820002185
:10122800BDE80840FFF77CBD10200121FFF778FDDD
:1012380010200021BDE80840FFF772BD20200121E1
:10124800FFF76EFD20200021BDE80840FFF768BDCC
:1012580002200121FFF772FD02200021BDE80840AD
:10126800FFF76CBD4FF480300121FFF767FD4FF4A5
:1012780080300021BDE80840FFF760BD4FF4003022
:101288000121FFF75BFD4FF400300021BDE8084065
:10129800FFF754BD4FF480200121FFF74FFD4FF4B5
:1012A80080200021BDE80840FFF748BD402001210B
:1012B800FFF736FD40200021BDE80840FFF730BDAC
:1012C80080200121FFF72CFD80200021BDE8084087
:1012D800FFF726BD70B400224FF48064C4F2010207
:1012E8000388C4F20104904218BFA0429BB214BF05
:1012F8000022012208D04FF48064C4F20004A04206
:1013080018BFB0F1804F23D14FF68F754C881D4020
:1013180045EA04034FF4A0564FF48055C4F2000583
:10132800C4F20006B04218BFA8421FBF0D894FF68D
:10133800FF441C4044EA05034D680C880380C562DD
:1013480004850AB18B7A03860123838270BC7047B7
:101358004FF400654FF44064C4F20005C4F2000481
:10136800A04218BFA842D5D1CEE700BF00234FF056
:10137800FF3242600380038143808372704700BF5D
:1013880001858282704700BF038823F070031B0425
:101398001B0C19430180704741627047C162704756
:1013A800406A7047008D80B2704700BF038829B932
:1013B80023F002031B041B0C038070479BB243F00D
:1013C80002030380704700BF038829B923F0040390
:1013D8001B041B0C038070479BB243F0040303807B
:1013E800704700BF038829B923F080031B041B0C36
:1013F800038070479BB243F080030380704700BFAF
:10140800038823F008031B041B0C038003889BB28A
:1014180019430180704700BF038823F440731B04FD
:101428001B0C038003889BB219430180704700BFDF
:10143800038829B923F001031B041B0C03807047A0
:101448009BB243F001030380704700BF2DE9F00110
:10145800048C8D89B1F802C00F8824F0010424049B
:10146800240C0484028C8488038B4CEA050C22F03B
:10147800020223F073034FF48066002512041B0454
:10148800C4F20106C4F20105120C1FFA8CFC1B0CF5
:10149800A84218BFB0424CEA0202A4B243EA0703CA
:1014A80017D14FF6F775B1F80EC0B1F812800E8A51
:1014B8008F88154045EA0C0C4FF6FB7248EA060681
:1014C8004FF6FF450CEA0202B6B225403A4346EA17
:1014D8000504896884800383BDE8F00141630284C0
:1014E800704700BF2DE9F003048C8D89B1F802C064
:1014F8000F8824F010042404240C0484028C8488AB
:10150800038B22F02002120423F4E643120C42EA71
:1015180005121B044FF4806600251B0CC4F201065B
:10152800C4F2010542EA0C1243EA0723A84218BF95
:10153800B04292B2A4B29BB219D14FF67F76B1F8FD
:101548000E90B1F81080B1F804C04F8A16404FF2DF
:10155800FF3546EA09164FF6BF722540324045EA84
:10156800880442EA0C1244EA870492B2A4B2896859
:1015780084800383BDE8F00381630284704700BF61
:101588002DE9F003048C8D89B1F802C00F8824F48A
:1015980080742404240C0484028C8488838B22F4B1
:1015A80000721204120C42EA052223F073034FF46E
:1015B800806600251B04C4F20106C4F2010542EA54
:1015C8000C221B0CA84218BFB04292B2A4B243EA44
:1015D800070319D14FF2FF76B1F80E90B1F81080D9
:1015E800B1F804C04F8A16404CF6FF7546EA092642
:1015F8004FF6FF322540324045EA081442EA0C22F1
:1016080044EA071492B2A4B2896884808383BDE84F
:10161800F003C16302847047F0B4048C8D890F888D
:10162800B1F802C024F480542404240C0484028CED
:101638008488838B22F400521204120C42EA053289
:101648004FF480660025C4F20105C4F20106A842E1
:1016580018BFB04223F4E64308BF0E8A8968A4B2D3
:1016680008BF4BF6FF754FEA034308BF25404FEA12
:10167800134308BF45EA861443EA072342EA0C32BB
:1016880008BFA4B292B29BB284808383F0BC016489
:1016980002847047002303804380838083608381B2
:1016A800C38103824382704730B4058C0124ADB2F4
:1016B8008C404FF6F77325EA04040B400484183075
:1016C80073B10439C1F34E0148F6FF730C58234037
:1016D8000B5012020B5892B21A430A5030BC704792
:1016E80049084FF68F7344582340435043581A43D0
:1016F800425030BC704700BF4163704781637047F8
:10170800C163704701647047038B23F070031B04A7
:101718001B0C194301837047038B23F4E0431B041C
:101728001B0C43EA01218BB203837047838B23F0A0
:1017380070031B041B0C194381837047838B23F4AC
:10174800E0431B041B0C43EA01218BB283837047DF
:10175800038B23F008031B041B0C194301837047F8
:10176800038B23F400631B041B0C43EA01218BB297
:1017780003837047838B23F008031B041B0C194356
:1017880081837047838B23F400631B041B0C43EA9B
:1017980001218BB283837047038B23F004031B045E
:1017A8001B0C194301837047038B23F480631B04CC
:1017B8001B0C43EA01218BB203837047838B23F010
:1017C80004031B041B0C194381837047838B23F488
:1017D80080631B041B0C43EA01218BB2838370478F
:1017E800038B23F080031B041B0C194301837047F0
:1017F800038BC3F30E0343EA01218BB203837047C3
:10180800838B23F080031B041B0C194381837047CF
:10181800838BC3F30E0343EA01218BB283837047A2
:10182800038C23F002031B041B0C1943018470472B
:10183800038C23F008031B041B0C19430184704715
:10184800038C23F020031B041B0C43EA01118BB209
:1018580003847047038C23F080031B041B0C43EAAA
:1018680001118BB203847047038C23F400731B04AB
:101878001B0C43EA01218BB203847047038C23F4C9
:1018880000631B041B0C43EA01218BB203847047DD
:10189800038C23F400531B041B0C43EA01318BB265
:1018A80003847047038C10B401248C409BB223EA54
:1018B80004030384038C5DF8044B8A4013439BB2F2
:1018C80003847047038C10B404248C409BB223EA31
:1018D80004030384038C5DF8044B8A4013439BB2D2
:1018E800038470470B88F0B4002B32D0042B59D0F6
:1018F800082B4E88038C00F084808F880D89CC8853
:1019080023F480510904090C0184828B038C22F48E
:10191800407223F4005312055B04120D5B0C42EA7B
:10192800072243EA063342EA05329BB243F4805366
:1019380092B282830384838B23F440631B041B0CC1
:101948008383838B9BB243EA04239BB28383F0BCDB
:101958007047038C4E888D880F89CC8823F001014D
:101968000904090C0184028B038C22F0F30212048F
:10197800120C23F00A0342EA07121B0446F0010185
:1019880092B21B0C2A430B4302830384038B23F07C
:101998000C031B041B0C0383038B9BB2234303839D
:1019A800F0BC7047038C4E888D880F89CC8823F053
:1019B80010010904090C0184028B038C22F4407283
:1019C800120523F0A003120D1B0442EA07321B0C78
:1019D80043EA061392B242EA05229BB243F010038F
:1019E80092B202830384038B23F440631B041B0C11
:1019F8000383038B9BB243EA04239BB20383F0BCAB
:101A080070478D880F89CC8823F480710904090CEC
:101A18000184828B038C22F0F30223F420631204E6
:101A28001B04120C1B0C42EA071243EA062392B26B
:101A38009BB243F480732A4382830384838B23F00D
:101A48000C031B041B0C8383838B9BB2234383836C
:101A58007DE700BF00230122828003804380C3808A
:101A6800038170472DE9F0014A888B880C88002A89
:101A78000CBF02260026012B14BF01270227002CC9
:101A880054D0058CB1F80880B1F806C025F01005CF
:101A98002D042D0C0584048B018C24F4407424053A
:101AA80021F0A001240D090444EA0834090CA4B269
:101AB80041EA021244EA032392B29BB242F01002B6
:101AC80003830284018B21F440610904090C01831A
:101AD800038B9BB243EA0C239BB20383018C21F056
:101AE80001010904090C0184028B038C22F0F30222
:101AF800120423F00A03120C1B0442EA08121B0CFE
:101B080043F0010392B21E43174307830684038BF5
:101B180023F00C031B041B0C0383038B9BB243EAC7
:101B28000C0CA0F818C0BDE8F0017047048CB1F89F
:101B380008C0CD8824F001010904090C0184018B37
:101B4800048C21F0F3010904090C24F00A0441EA89
:101B58000C11240442F0010289B2240C14430B43F3
:101B680003830484038B23F00C031B041B0C0383E3
:101B7800038B9BB22B430383038C23F010031B04BA
:101B88001B0C0384028B038C22F44072120523F091
:101B9800A003120D1B0442EA0C321B0C43F0100385
:101BA80092B243EA061642EA072707830684038BA4
:101BB80023F440631B041B0C0383038B9BB243EA8F
:101BC8000525ADB20583BDE8F0017047406B70474D
:101BD800806B7047C06B7047006C7047038B23F0B5
:101BE8000C031B041B0C0383038B9BB21943018357
:101BF800704700BF038B23F440631B041B0C038353
:101C0800038B9BB243EA01218BB20383704700BF69
:101C1800838B23F00C031B041B0C8383838B9BB2E5
:101C280019438183704700BF838B23F440631B04EF
:101C38001B0C8383838B9BB243EA01218BB2838382
:101C4800704700BFB1F802C00B888A89F0B48F884A
:101C5800CE880D894C894CEA03033B4333432B431D
:101C6800234313439BB2A0F84430F0BC704700BF35
:101C78000023038043808380C38003814381838161
:101C8800704700BFB0F8443021B9C3F30E03A0F881
:101C9800443070476FEA43436FEA53439BB2A0F85E
:101CA80044307047838829B923F004031B041B0CB4
:101CB800838070479BB243F004038380704700BF62
:101CC800838829B923F001031B041B0C8380704708
:101CD8009BB243F001038380704700BF83899BB2A6
:101CE8001AB923EA0101818170471943818170473C
:101CF80081827047038A19420CBF00200120704777
:101D0800C94389B201827047038A828911420CBF94
:101D18000020012019420CBF002000F0010070478C
:101D2800C94389B2018270470A43A0F84820704726
:101D380083899BB21AB923EA01018181704719434B
:101D480081817047838829B923F008031B041B0C81
:101D5800838070479BB243F008038380704700BFBD
:101D6800038923F007031B041B0C0381704700BF82
:101D7800038923F070031B041B0C19430181038999
:101D88009BB243F007030381704700BF602970B41A
:101D980027D0068C26F001063604360C0684058BFF
:101DA800048C25F0F3052D0424F00A042D0C2404DA
:101DB80045F00105240C45EA031344F001049BB2E5
:101DC800224303830284038923F070031B041B0C42
:101DD8000B43038103899BB243F00703038170BC63
:101DE8007047048C24F010042404240C0484058B0C
:101DF800048C25F4407524F0A0042D0524042D0D31
:101E0800240C45F4807544F0100445EA033344EA91
:101E180002129BB292B203830284D4E710B40489FD
:101E280042EA0323E4B223439BB2194301810389A5
:101E38005DF8044B23F077031B041B0C43F0770376
:101E48000381704710B4048942EA0323E4B22343B0
:101E58009BB21943018103895DF8044B9BB243F49B
:101E680080430381704700BF038923F070031B047C
:101E78001B0C194301817047838823F070031B04EE
:101E88001B0C838083889BB219438180704700BFF5
:101E9800038923F007031B041B0C038103899BB2EE
:101EA80019430181704700BF038923F080031B0495
:101EB8001B0C038103899BB219430181704700BF42
:101EC80010B40489E4B221430A4342EA03239CB2D2
:101ED80004815DF8044B704770B40589048B068C47
:101EE80024F4407426F0220624F003043604360C49
:101EF80025F00705240432432D04240C2D0C44F44A
:101F0800807442EA0313294344F001049EB201811C
:101F18000483068470BC7047838829B923F0800342
:101F28001B041B0C838070479BB243F080038380A3
:101F3800704700BFA0F85010704700BF81F0004103
:101F480002E000BF83F0004330B54FEA41044FEA96
:101F5800430594EA050F08BF90EA020F1FBF54EA31
:101F6800000C55EA020C7FEA645C7FEA655C00F0CD
:101F7800E2804FEA5454D4EB5555B8BF6D420CDD9E
:101F88002C4480EA020281EA030382EA000083EA21
:101F9800010180EA020281EA0303362D88BF30BDC1
:101FA80011F0004F4FEA01314FF4801C4CEA113117
:101FB80002D0404261EB410113F0004F4FEA033376
:101FC8004CEA133302D0524263EB430394EA050F01
:101FD80000F0A780A4F10104D5F1200E0DDB02FA70
:101FE8000EFC22FA05F2801841F1000103FA0EF204
:101FF800801843FA05F359410EE0A5F120050EF1CA
:10200800200E012A03FA0EFC28BF4CF0020C43FAFA
:1020180005F3C01851EBE37101F0004507D54FF007
:10202800000EDCF1000C7EEB00006EEB0101B1F557
:10203800801F1BD3B1F5001F0CD349085FEA30009D
:102048004FEA3C0C04F101044FEA445212F5800FA8
:1020580080F09A80BCF1004F08BF5FEA500C50F145
:10206800000041EB045141EA050130BD5FEA4C0C28
:10207800404141EB010111F4801FA4F10104E9D1B1
:1020880091F0000F04BF01460020B1FA81F308BFA8
:102098002033A3F10B03B3F120020CDA0C3208DD74
:1020A80002F1140CC2F10C0201FA0CF021FA02F14F
:1020B8000CE002F11402D8BFC2F1200C01FA02F1BF
:1020C80020FA0CFCDCBF41EA0C019040E41AA2BFE4
:1020D80001EB0451294330BD6FEA04041F3C1CDAAC
:1020E8000C340EDC04F11404C4F1200220FA04F0CC
:1020F80001FA02F340EA030021FA04F345EA030176
:1021080030BDC4F10C04C4F1200220FA02F001FA37
:1021180004F340EA0300294630BD21FA04F02946B9
:1021280030BD94F0000F83F4801306BF81F4801152
:102138000134013D4EE77FEA645C18BF7FEA655CC5
:1021480029D094EA050F08BF90EA020F05D054EA97
:10215800000C04BF1946104630BD91EA030F1EBF9C
:102168000021002030BD5FEA545C05D140004941A0
:1021780028BF41F0004130BD14F580043CBF01F593
:10218800801130BD01F0004545F0FE4141F4700179
:102198004FF0000030BD7FEA645C1ABF1946104654
:1021A8007FEA655C1CBF0B46024650EA013406BF55
:1021B80052EA033591EA030F41F4002130BD00BF14
:1021C80090F0000F04BF0021704730B54FF48064D1
:1021D80004F132044FF000054FF0000150E700BF52
:1021E80090F0000F04BF0021704730B54FF48064B1
:1021F80004F1320410F0004548BF40424FF000019E
:102208003EE700BF42004FEAE2014FEA31014FEAE0
:1022180002701FBF12F07F4393F07F4F81F060512F
:10222800704792F0000F14BF93F07F4F704730B59E
:102238004FF4607401F0004521F0004120E700BF31
:1022480050EA010208BF704730B54FF000050AE0B8
:1022580050EA010208BF704730B511F0004502D5B9
:10226800404261EB41014FF4806404F132045FEABB
:10227800915C3FF4DCAE4FF003025FEADC0C18BF60
:1022880003325FEADC0C18BF033202EBDC02C2F156
:10229800200300FA03FC20FA02F001FA03FE40EAE8
:1022A8000E0021FA02F11444C1E600BF70B54FF0E8
:1022B800FF0C4CF4E06C1CEA11541DBF1CEA1355CA
:1022C80094EA0C0F95EA0C0F00F0DEF82C4481EA32
:1022D800030621EA4C5123EA4C5350EA013518BF52
:1022E80052EA033541F4801143F4801338D0A0FB3F
:1022F80002CE4FF00005E1FB02E506F00042E0FBEC
:1023080003E54FF00006E1FB03569CF0000F18BFF1
:102318004EF0010EA4F1FF04B6F5007F64F5407499
:1023280004D25FEA4E0E6D4146EB060642EAC6212C
:1023380041EA55514FEAC52040EA5E504FEACE2E99
:10234800B4F1FD0C88BFBCF5E06F1ED8BEF1004F9C
:1023580008BF5FEA500E50F1000041EB045170BD18
:1023680006F0004646EA010140EA020081EA03015C
:10237800B4EB5C04C2BFD4EB0C0541EA045170BD58
:1023880041F480114FF0000E013C00F3AB8014F1D2
:10239800360FDEBF002001F0004170BDC4F100041B
:1023A800203C35DA0C341BDC04F11404C4F120059C
:1023B80000FA05F320FA04F001FA05F240EA0200F7
:1023C80001F0004221F0004110EBD37021FA04F62D
:1023D80042EB06015EEA430E08BF20EAD37070BDE7
:1023E800C4F10C04C4F1200500FA04F320FA05F046
:1023F80001FA04F240EA020001F0004110EBD37048
:1024080041F100015EEA430E08BF20EAD37070BDB7
:10241800C4F1200500FA05F24EEA020E20FA04F390
:1024280001FA05F243EA020321FA04F001F000413F
:1024380021FA04F220EA020000EBD3705EEA430EB0
:1024480008BF20EAD37070BD94F0000F0FD101F0DF
:102458000046400041EB010111F4801F08BF013C18
:10246800F7D041EA060195F0000F18BF704703F056
:102478000046520043EB030313F4801F08BF013DDD
:10248800F7D043EA0603704794EA0C0F0CEA135599
:1024980018BF95EA0C0F0CD050EA410618BF52EA53
:1024A8004306D1D181EA030101F000414FF0000059
:1024B80070BD50EA410606BF1046194652EA430667
:1024C80019D094EA0C0F02D150EA013613D195EADB
:1024D8000C0F05D152EA03361CBF104619460AD123
:1024E80081EA030101F0004141F0FE4141F470012D
:1024F8004FF0000070BD41F0FE4141F4780170BD1D
:1025080070B54FF0FF0C4CF4E06C1CEA11541DBF81
:102518001CEA135594EA0C0F95EA0C0F00F0A7F883
:10252800A4EB050481EA030E52EA03354FEA0131B0
:1025380000F088804FEA03334FF0805545EA1313C3
:1025480043EA12634FEA022245EA111545EA10658B
:102558004FEA00260EF000419D4208BF964244F122
:10256800FD0404F5407402D25B084FEA3202B61A41
:1025780065EB03055B084FEA32024FF480104FF415
:10258800002CB6EB020E75EB030E22BFB61A754689
:1025980040EA0C005B084FEA3202B6EB020E75EB1C
:1025A800030E22BFB61A754640EA5C005B084FEA84
:1025B8003202B6EB020E75EB030E22BFB61A754651
:1025C80040EA9C005B084FEA3202B6EB020E75EB5C
:1025D800030E22BFB61A754640EADC0055EA060E1D
:1025E80018D04FEA051545EA16754FEA06164FEA60
:1025F800C30343EA52734FEAC2025FEA1C1CC0D10C
:1026080011F4801F0BD141EA00014FF000004FF098
:10261800004CB6E711F4801F04BF01430020B4F159
:10262800FD0C88BFBCF5E06F3FF6AFAEB5EB030C11
:1026380004BFB6EB020C5FEA500C50F1000041EB0E
:10264800045170BD0EF0004E4EEA113114EB5C04DB
:10265800C2BFD4EB0C0541EA045170BD41F48011AE
:102668004FF0000E013C90E645EA060E8DE60CEAB6
:10267800135594EA0C0F08BF95EA0C0F3FF43BAFD3
:1026880094EA0C0F0AD150EA01347FF434AF95EA8A
:102698000C0F7FF425AF104619462CE795EA0C0F6E
:1026A80006D152EA03353FF4FDAE1046194622E73B
:1026B80050EA410618BF52EA43067FF4C5AE50EA15
:1026C80041047FF40DAF52EA43057FF4EBAE12E705
:1026D8004FEA4102B2F1E04324BFB3F5001CDCF13C
:1026E800FE5C0DD901F0004C4FEAC0024CEA507074
:1026F800B2F1004F40EB830008BF20F001007047A3
:1027080011F0804F21D113F13872BCBF01F00040A5
:10271800704741F480114FEA5252C2F11802C2F1D7
:10272800200C10FA0CF320FA02F018BF40F0010058
:102738004FEAC1234FEAD32303FA0CFC40EA0C000A
:1027480023FA02F34FEA4303CCE77FEA625307D147
:1027580050EA01331EBF4FF0FE4040F4400070477E
:1027680001F0004040F0FE4040F40000704700BF18
:10277800014600200246034600F000B8F0B542F6D4
:10278800BC24C0F6000485B02668D6F84841074640
:10279800002C44D065681F2D21DD40F20004C0F2F2
:1027A80000041CB94FF0FF3005B0F0BD4FF4C870FD
:1027B800039102920193AFF300800399029A019B5F
:1027C80004460028EED0D6F8485100202560606005
:1027D8000546C6F84841C4F88801C4F88C013FB9D9
:1027E800AB1C00200135656044F8231005B0F0BD2E
:1027F80004EB85004FF0010CC0F88820D4F88861FC
:102808000CFA05F21643022FC4F88861C0F80831A3
:1028180002BFD4F88C311A43C4F88C21E0E706F5DE
:10282800A674C6F84841B5E708B50021044600F08B
:102838009DF842F6BC23C0F600031868C36B03B1C9
:102848009847204600F048E938B542F6F02442F6A9
:10285800EC25C0F60005C0F60004641BA41018BFE0
:1028680005EB840505D0013C55F8043D9847002C3C
:10287800F9D1BDE8384000F029B900BF70B542F67B
:10288800E82642F6E825C0F60005C0F60006761BE5
:10289800B6101CBF043D002405D0013455F8043F90
:1028A8009847A642F9D142F6EC2642F6E825C0F64A
:1028B8000005C0F60006761B00F002F9B6101CBF32
:1028C800043D002406D0013455F8043F9847A64239
:1028D800F9D170BD70BD00BFF0B4840743D0541E59
:1028E800002A3ED0CDB2034603E0621E002C38D049
:1028F800144603F8015B9A07F7D1032C2AD9CDB205
:1029080045EA05250F2C45EA054515D9A4F1100718
:102918003F0903F1100606EB07161A4615605560C5
:102928009560D5601032B242F8D104F00F04013737
:10293800032C03EB07130DD91E462246043A032A3B
:1029480046F8045BFAD8221F22F00302043213442B
:1029580004F003042CB1C9B21C4403F8011BA342C0
:10296800FBD1F0BC704714460346C6E72DE9F04F8B
:1029780042F6BC23C0F6000385B01B68029040F203
:1029880000020193C0F2000203F5A4730F460393FB
:1029980000924FF00109019AD2F84881B8F1000F6E
:1029A8001AD0DDF80CA0D8F804305C1E5FBF08F11F
:1029B80088059E1C05EB830508EB86060AD477B1CB
:1029C800EB6FBB420BD0013C631CA5F10405A6F1DB
:1029D8000406F4D1009B7BBB05B0BDE8F08FD8F8A6
:1029E800042056F8043C013AA24216BF0022C8F857
:1029F800044046F8042C002BE5D0D8F88811D8F804
:102A080004B009FA04F20A4210D0D8F88C110A422C
:102A18000ED1029855F8041C9847D8F804305B4545
:102A2800B9D1DAF800304345CDD0B4E79847F4E798
:102A380055F8040C9847F0E7D8F804306BB9D8F883
:102A4800003063B14046CAF80030AFF30080DAF8CE
:102A58000080B8F1000FA6D1BEE7D8F80030C24612
:102A68009846F6E7002100F004B80C4B5B58435039
:102A780004310B480B4B42189A42FFF4F6AF0A4A4E
:102A880000F003B8002342F8043B084B9A42FFF4D5
:102A9800F9AFFDF71BFCFDF70BFC7047F02A0008A7
:102AA800000000206004002064040020840400204A
:102AB800FFF7FEBF380000204300000000000000C0
:102AC800F8B500BFF8BC08BC9E467047F8B500BF13
:082AD800F8BC08BC9E467047E3
:082AE00070D7FF7F0100000028
:042AE80011020008CF
:042AEC00E1010008FC
:102AF00000000000007A030A00000000000000004F
:102B000001020304060708090000F040000000006D
:102B10000102030401020304060708090000000083
:102B20003800002000000000000000002403002006
:102B30008C030020F40300200000000000000000CF
:102B40000000000000000000000000000000000085
:102B5000000000000000000000000000C02A000883
:102B60000000000000000000000000000000000065
:102B70000000000000000000000000000000000055
:102B80000000000000000000000000000000000045
:102B90000000000000000000000000000000000035
:102BA0000000000000000000000000000000000025
:102BB0000000000000000000000000000000000015
:102BC0000000000000000000000000000000000005
:102BD00001000000000000000E33CDAB34126DE6A2
:102BE000ECDE05000B00000000000000000000000B
:102BF00000000000000000000000000000000000D5
:102C000000000000000000000000000000000000C4
:102C100000000000000000000000000000000000B4
:102C200000000000000000000000000000000000A4
:042F5000000000007D
:0400000508002A6D58
:00000001FF
